:100000000C942A000C943F000C943F000C943F0089
:100010000C943F000C943F000C943F000C943F0064
:100020000C943F000C943F000C943F000C943F0054
:100030000C943F000C943F000C943F000C943F0044
:100040000C943F000C943F000C943F000C943F0034
:100050000C943F0011241FBECFE5D8E0DEBFCDBF1A
:1000600010E0A0E6B0E0E4E0FCE002C005900D92F4
:10007000A238B107D9F70E94D9030C9400060C945A
:10008000000087B1806487B987B18F7787B986B15F
:10009000806886B987B18E7F87B987B18D7F87B930
:1000A00087B18B7F87B987B1877F87B987B18F7E0B
:1000B00087B986B1806286B986B1816086B986B11A
:1000C000826086B986B1846086B986B1806186B95E
:1000D00086B1886086B987B18F7D87B9089586B16A
:1000E000806486B9349BFECF84B195B10895843085
:1000F00008F072C0683008F06FC04130A1F581305F
:1001000089F028F08230C9F0833011F108952AB3C4
:1001100081E090E002C0880F991F6A95E2F7822B78
:100120008ABB089527B381E090E002C0880F991F31
:100130006A95E2F7822B87BB089524B381E090E0B3
:1001400002C0880F991F6A95E2F7822B84BB08953D
:1001500021B381E090E002C0880F991F6A95E2F711
:10016000822B81BB0895411137C0813091F028F076
:100170008230D9F0833029F108952AB381E090E0EC
:1001800002C0880F991F6A95E2F7809582238ABB87
:10019000089527B381E090E002C0880F991F6A9507
:1001A000E2F78095822387BB089524B381E090E035
:1001B00002C0880F991F6A95E2F78095822384BB5D
:1001C000089521B381E090E002C0880F991F6A95DD
:1001D000E2F78095822381BB0895843008F072C0D5
:1001E000683008F06FC04130A1F5813089F028F007
:1001F0008230C9F0833011F108952BB381E090E093
:1002000002C0880F991F6A95E2F7822B8BBB089575
:1002100028B381E090E002C0880F991F6A95E2F749
:10022000822B88BB089525B381E090E002C0880F3F
:10023000991F6A95E2F7822B85BB089522B381E06E
:1002400090E002C0880F991F6A95E2F7822B82BB6B
:100250000895411137C0813091F028F08230D9F0F3
:10026000833029F108952BB381E090E002C0880F1C
:10027000991F6A95E2F7809582238BBB089528B376
:1002800081E090E002C0880F991F6A95E2F780959F
:10029000822388BB089525B381E090E002C0880FD7
:1002A000991F6A95E2F78095822385BB089522B352
:1002B00081E090E002C0880F991F6A95E2F780956F
:1002C000822382BB0895843060F4813039F028F0B5
:1002D000823029F0833021F008956ABB67BB64BB8C
:1002E00061BB0895843060F4813039F028F08230A9
:1002F00029F0833021F008956BBB68BB65BB62BBFE
:100300000895CF93C82F40E064E082E00E94ED00A2
:1003100040E065E082E00E94ED0041E066E082E0BE
:100320000E94ED008FE19EE40197F1F700C000000C
:100330006C2F607F83E00E94720140E066E082E003
:100340000E94ED008FE19EE40197F1F700C00000EC
:1003500041E066E082E00E94ED008FE19EE40197BB
:10036000F1F700C000006C2F6295607F83E00E946F
:10037000720140E066E082E00E94ED008FE19EE4C1
:100380000197F1F700C00000CF9108952FEF81EEA3
:1003900094E0215080409040E1F700C0000083E3EA
:1003A0000E94810182E30E94810188E20E94810112
:1003B0008CE00E94810181E00E94810186E00E9420
:1003C000810182E00E9481010895CF93C82F41E00E
:1003D00064E082E00E94ED0040E065E082E00E947F
:1003E000ED0041E066E082E00E94ED008FE19EE4D6
:1003F0000197F1F700C000006C2F607F83E00E943E
:10040000720140E066E082E00E94ED008FE19EE430
:100410000197F1F700C0000041E066E082E00E9431
:10042000ED006C2F6295607F83E00E9472018FE186
:100430009EE40197F1F700C0000040E066E082E032
:100440000E94ED008FE19EE40197F1F700C00000EB
:10045000CF910895811107C0603128F480E8860F9C
:100460000E9481010895813031F4603120F480ECE4
:10047000860F0E94810108950F931F93CF938C01E3
:10048000C0E003C00E94E501CF5FF801EC0FF11D51
:1004900080818111F7CFCF911F910F910895EF9235
:1004A000FF920F931F93CF93DF93CDB7DEB72B97B8
:1004B0000FB6F894DEBF0FBECDBF8C018BE0E0E637
:1004C000F0E0DE01119601900D928A95E1F7043675
:1004D000110508F043C09801ADECBCEC0E94F10599
:1004E0007C01F694E794F694E794F694E7949701E8
:1004F0000E94F1059695879596958795969587958F
:100500009C01220F331F880F991F880F991F880F96
:10051000991F820F931F9701281B390BE1E0F0E030
:10052000EC0FFD1FE20FF31F80810E94E501C70160
:10053000880F991FEE0CFF1CEE0CFF1CEE0CFF1C2D
:10054000E80EF91E0E191F09E1E0F0E0EC0FFD1FA7
:10055000E00FF11F80810E94E5011EC104361105E4
:1005600008F471C098013695279536952795ABE725
:10057000B4E10E94F105AC01569547959A01ADECA6
:10058000BCEC0E94F1059695879596958795969572
:1005900087959C01220F331F880F991F880F991F81
:1005A000880F991F820F931F9A01281B390BE1E0D6
:1005B000F0E0EC0FFD1FE20FF31F80810E94E501C8
:1005C0009801ADECBCEC0E94F1057C01F694E79437
:1005D000F694E794F694E79497010E94F1059695B6
:1005E000879596958795969587959C01220F331F41
:1005F000880F991F880F991F880F991F820F931FCB
:100600009701281B390BE1E0F0E0EC0FFD1FE20F32
:10061000F31F80810E94E501C701880F991FEE0C2E
:10062000FF1CEE0CFF1CEE0CFF1CE80EF91E0E1951
:100630001F09E1E0F0E0EC0FFD1FE00FF11F8081EA
:100640000E94E501A9C0083E33E0130708F4A4C0E6
:100650009801369527953695279536952795A5ECDB
:10066000B0E20E94F105AC01529542954F704527CA
:100670005F7045279A01ADECBCEC0E94F1059695A0
:10068000879596958795969587959C01220F331FA0
:10069000880F991F880F991F880F991F820F931F2A
:1006A0009A01281B390BE1E0F0E0EC0FFD1FE20F8F
:1006B000F31F80810E94E5019801369527953695B4
:1006C0002795ABE7B4E10E94F105AC01569547953B
:1006D0009A01ADECBCEC0E94F10596958795969534
:1006E0008795969587959C01220F331F880F991F38
:1006F000880F991F880F991F820F931F9A01281B3B
:10070000390BE1E0F0E0EC0FFD1FE20FF31F8081F9
:100710000E94E5019801ADECBCEC0E94F1057C0162
:10072000F694E794F694E794F694E79497010E9480
:10073000F1059695879596958795969587959C0151
:10074000220F331F880F991F880F991F880F991F39
:10075000820F931F9701281B390BE1E0F0E0EC0FAB
:10076000FD1FE20FF31F80810E94E501C701880F82
:10077000991FEE0CFF1CEE0CFF1CEE0CFF1CE80E8C
:10078000F91E0E191F09E1E0F0E0EC0FFD1FE00F6C
:10079000F11F80810E94E5012B960FB6F894DEBF11
:1007A0000FBECDBFDF91CF911F910F91FF90EF90C2
:1007B00008950E9441000E94900440E065E081E0BD
:1007C0000E94770041E066E081E00E94770040E00F
:1007D00067E081E00E94770040E064E081E00E94F1
:1007E000770040E060E080E00E94770041E062E056
:1007F00080E00E94770041E063E080E00E947700A3
:1008000041E064E080E00E94770041E064E082E043
:100810000E94770041E065E082E00E94770041E0BD
:1008200066E082E00E9477006FEF83E00E94630140
:100830000E94C6018BE690E00E943C0267E080E0E7
:100840000E942A020E94AA04843148F46AE081E0EE
:100850000E942A0282E790E00E943C0214C0845168
:100860008B3048F46AE081E00E942A0287E790E03A
:100870000E943C0208C06AE081E00E942A028CE7E4
:1008800090E00E943C020E94A6048233C9F018F452
:10089000813331F0D3CF833319F1843389F1CECF53
:1008A00041E062E080E00E94ED0040E063E080E033
:1008B0000E94ED0040E064E080E00E94ED00BECFC9
:1008C00040E062E080E00E94ED0041E063E080E013
:1008D0000E94ED0040E064E080E00E94ED00AECFB9
:1008E00040E062E080E00E94ED0040E063E080E0F4
:1008F0000E94ED0041E064E080E00E94ED009ECFA8
:1009000041E062E080E00E94ED0041E063E080E0D1
:100910000E94ED0041E064E080E00E94ED008ECF97
:100920008DB180648DB98DB180618DB98DB1877FB6
:100930008DB98DB18B7F8DB98EB18E7F8EB98DB112
:100940008F7D8DB98DB180688DB90895779BFECF6D
:100950008FB10895CF930E946F00BC0180E090E0BA
:100960000E94630523E333E343E050E40E94C204A2
:100970000E943405C62F862F90E00E944F028C2FD4
:10098000CF9108950E94D6040C94B7050E94B0053B
:1009900058F00E94A90540F029F45F3F29F00C941B
:1009A000A00551110C94EB050C94A6050E94C805F6
:1009B00068F39923B1F3552391F3951B550BBB278E
:1009C000AA2762177307840738F09F5F5F4F220FD3
:1009D000331F441FAA1FA9F335D00E2E3AF0E0E8CA
:1009E00032D091505040E695001CCAF72BD0FE2F14
:1009F00029D0660F771F881FBB1F261737074807A8
:100A0000AB07B0E809F0BB0B802DBF01FF2793585F
:100A10005F4F3AF09E3F510578F00C94A0050C947E
:100A2000EB055F3FE4F3983ED4F3869577956795A1
:100A3000B795F7959F5FC9F7880F911D9695879594
:100A400097F90895E1E0660F771F881FBB1F6217B3
:100A500073078407BA0720F0621B730B840BBA0B71
:100A6000EE1F88F7E09508950E94D00588F09F5703
:100A700098F0B92F9927B751B0F0E1F0660F771FC2
:100A8000881F991F1AF0BA95C9F714C0B13091F0B8
:100A90000E94EA05B1E008950C94EA05672F782FCB
:100AA0008827B85F39F0B93FCCF38695779567957D
:100AB000B395D9F73EF490958095709561957F4FE9
:100AC0008F4F9F4F0895E89409C097FB3EF490958F
:100AD0008095709561957F4F8F4F9F4F9923A9F017
:100AE000F92F96E9BB279395F695879577956795A6
:100AF000B795F111F8CFFAF4BB0F11F460FF1BC0EA
:100B00006F5F7F4F8F4F9F4F16C0882311F096E97C
:100B100011C0772321F09EE8872F762F05C066232A
:100B200071F096E8862F70E060E02AF09A95660FE3
:100B3000771F881FDAF7880F9695879597F908959C
:100B400097F99F6780E870E060E008959FEF80EC80
:100B5000089500240A941616170618060906089523
:100B600000240A9412161306140605060895092E89
:100B70000394000C11F4882352F0BB0F40F4BF2BF8
:100B800011F460FF04C06F5F7F4F8F4F9F4F089538
:100B900057FD9058440F551F59F05F3F71F047952E
:100BA000880F97FB991F61F09F3F79F08795089513
:100BB000121613061406551FF2CF4695F1DF08C032
:100BC000161617061806991FF1CF8695710561054F
:100BD00008940895E894BB2766277727CB0197F9F7
:100BE0000895A29FB001B39FC001A39F700D811D06
:100BF0001124911DB29F700D811D1124911D089526
:040C0000F894FFCF96
:100C0400303132333435363738390054656D70201D
:100C14003D00434F4C44005741524D00484F54202F
:020C24000000CE
:00000001FF
